{
  "_format": "hh-sol-artifact-1",
  "contractName": "Order",
  "sourceName": "contracts/order/Order.sol",
  "abi": [
    {
      "inputs": [],
      "name": "InvalidInitialization",
      "type": "error"
    },
    {
      "inputs": [],
      "name": "NotInitializing",
      "type": "error"
    },
    {
      "inputs": [
        {
          "internalType": "address",
          "name": "owner",
          "type": "address"
        }
      ],
      "name": "OwnableInvalidOwner",
      "type": "error"
    },
    {
      "inputs": [
        {
          "internalType": "address",
          "name": "account",
          "type": "address"
        }
      ],
      "name": "OwnableUnauthorizedAccount",
      "type": "error"
    },
    {
      "anonymous": false,
      "inputs": [
        {
          "indexed": true,
          "internalType": "address",
          "name": "orderId",
          "type": "address"
        }
      ],
      "name": "ArbitrationRequested",
      "type": "event"
    },
    {
      "anonymous": false,
      "inputs": [
        {
          "indexed": true,
          "internalType": "address",
          "name": "orderId",
          "type": "address"
        }
      ],
      "name": "BorrowSuccessful",
      "type": "event"
    },
    {
      "anonymous": false,
      "inputs": [
        {
          "indexed": true,
          "internalType": "address",
          "name": "orderId",
          "type": "address"
        }
      ],
      "name": "BorrowerBTCTransferManuallyConfirmed",
      "type": "event"
    },
    {
      "anonymous": false,
      "inputs": [
        {
          "indexed": true,
          "internalType": "address",
          "name": "orderId",
          "type": "address"
        },
        {
          "indexed": false,
          "internalType": "bytes32",
          "name": "zkTxHash",
          "type": "bytes32"
        },
        {
          "indexed": false,
          "internalType": "enum OrderStatus",
          "name": "status",
          "type": "uint8"
        }
      ],
      "name": "BorrowerBTCTransferProofSubmitted",
      "type": "event"
    },
    {
      "anonymous": false,
      "inputs": [
        {
          "indexed": false,
          "internalType": "uint64",
          "name": "version",
          "type": "uint64"
        }
      ],
      "name": "Initialized",
      "type": "event"
    },
    {
      "anonymous": false,
      "inputs": [
        {
          "indexed": true,
          "internalType": "address",
          "name": "orderId",
          "type": "address"
        }
      ],
      "name": "LenderBTCTransferManuallyConfirmed",
      "type": "event"
    },
    {
      "anonymous": false,
      "inputs": [
        {
          "indexed": true,
          "internalType": "address",
          "name": "orderId",
          "type": "address"
        },
        {
          "indexed": false,
          "internalType": "bytes32",
          "name": "zkTxHash",
          "type": "bytes32"
        },
        {
          "indexed": false,
          "internalType": "enum OrderStatus",
          "name": "status",
          "type": "uint8"
        }
      ],
      "name": "LenderBTCTransferProofSubmitted",
      "type": "event"
    },
    {
      "anonymous": false,
      "inputs": [
        {
          "indexed": true,
          "internalType": "address",
          "name": "orderId",
          "type": "address"
        }
      ],
      "name": "OrderClosed",
      "type": "event"
    },
    {
      "anonymous": false,
      "inputs": [
        {
          "indexed": true,
          "internalType": "address",
          "name": "orderId",
          "type": "address"
        },
        {
          "indexed": false,
          "internalType": "string",
          "name": "takerBtcAddress",
          "type": "string"
        }
      ],
      "name": "OrderTaken",
      "type": "event"
    },
    {
      "anonymous": false,
      "inputs": [
        {
          "indexed": true,
          "internalType": "address",
          "name": "previousOwner",
          "type": "address"
        },
        {
          "indexed": true,
          "internalType": "address",
          "name": "newOwner",
          "type": "address"
        }
      ],
      "name": "OwnershipTransferred",
      "type": "event"
    },
    {
      "anonymous": false,
      "inputs": [
        {
          "indexed": true,
          "internalType": "address",
          "name": "orderId",
          "type": "address"
        },
        {
          "indexed": false,
          "internalType": "uint256",
          "name": "interest",
          "type": "uint256"
        },
        {
          "indexed": false,
          "internalType": "uint256",
          "name": "principal",
          "type": "uint256"
        },
        {
          "indexed": false,
          "internalType": "bytes",
          "name": "btcTxData",
          "type": "bytes"
        },
        {
          "indexed": false,
          "internalType": "bytes",
          "name": "signature",
          "type": "bytes"
        }
      ],
      "name": "RepaymentMade",
      "type": "event"
    },
    {
      "inputs": [],
      "name": "arbitrationPayee",
      "outputs": [
        {
          "internalType": "address",
          "name": "",
          "type": "address"
        }
      ],
      "stateMutability": "view",
      "type": "function"
    },
    {
      "inputs": [
        {
          "internalType": "bytes",
          "name": "preimage",
          "type": "bytes"
        }
      ],
      "name": "borrow",
      "outputs": [],
      "stateMutability": "nonpayable",
      "type": "function"
    },
    {
      "inputs": [],
      "name": "borrowExpirationTime",
      "outputs": [
        {
          "internalType": "uint256",
          "name": "",
          "type": "uint256"
        }
      ],
      "stateMutability": "view",
      "type": "function"
    },
    {
      "inputs": [],
      "name": "borrowedTime",
      "outputs": [
        {
          "internalType": "uint256",
          "name": "",
          "type": "uint256"
        }
      ],
      "stateMutability": "view",
      "type": "function"
    },
    {
      "inputs": [],
      "name": "borrower",
      "outputs": [
        {
          "internalType": "address",
          "name": "",
          "type": "address"
        }
      ],
      "stateMutability": "view",
      "type": "function"
    },
    {
      "inputs": [],
      "name": "borrowerBtcAddress",
      "outputs": [
        {
          "internalType": "string",
          "name": "",
          "type": "string"
        }
      ],
      "stateMutability": "view",
      "type": "function"
    },
    {
      "inputs": [],
      "name": "borrowerConfirmRewardsTips",
      "outputs": [
        {
          "internalType": "uint256",
          "name": "",
          "type": "uint256"
        }
      ],
      "stateMutability": "view",
      "type": "function"
    },
    {
      "inputs": [],
      "name": "borrowerProofBlock",
      "outputs": [
        {
          "internalType": "uint256",
          "name": "",
          "type": "uint256"
        }
      ],
      "stateMutability": "view",
      "type": "function"
    },
    {
      "inputs": [],
      "name": "borrowerProofTime",
      "outputs": [
        {
          "internalType": "uint256",
          "name": "",
          "type": "uint256"
        }
      ],
      "stateMutability": "view",
      "type": "function"
    },
    {
      "inputs": [],
      "name": "borrowerPublicKey",
      "outputs": [
        {
          "internalType": "bytes",
          "name": "",
          "type": "bytes"
        }
      ],
      "stateMutability": "view",
      "type": "function"
    },
    {
      "inputs": [],
      "name": "borrowerRepaidTime",
      "outputs": [
        {
          "internalType": "uint256",
          "name": "",
          "type": "uint256"
        }
      ],
      "stateMutability": "view",
      "type": "function"
    },
    {
      "inputs": [],
      "name": "closeOrder",
      "outputs": [],
      "stateMutability": "nonpayable",
      "type": "function"
    },
    {
      "inputs": [],
      "name": "collateralAmount",
      "outputs": [
        {
          "internalType": "uint256",
          "name": "",
          "type": "uint256"
        }
      ],
      "stateMutability": "view",
      "type": "function"
    },
    {
      "inputs": [
        {
          "internalType": "bytes32",
          "name": "wTxId",
          "type": "bytes32"
        },
        {
          "internalType": "bytes32",
          "name": "btcTxId",
          "type": "bytes32"
        }
      ],
      "name": "confirmRegularUnlockTransfer",
      "outputs": [],
      "stateMutability": "nonpayable",
      "type": "function"
    },
    {
      "inputs": [
        {
          "internalType": "bytes32",
          "name": "wTxId",
          "type": "bytes32"
        },
        {
          "internalType": "bytes32",
          "name": "btcTxId",
          "type": "bytes32"
        }
      ],
      "name": "confirmTransferToLender",
      "outputs": [],
      "stateMutability": "nonpayable",
      "type": "function"
    },
    {
      "inputs": [
        {
          "internalType": "address",
          "name": "_token",
          "type": "address"
        },
        {
          "internalType": "uint256",
          "name": "_amount",
          "type": "uint256"
        },
        {
          "internalType": "uint256",
          "name": "_durationDays",
          "type": "uint256"
        },
        {
          "internalType": "string",
          "name": "_refundAddress",
          "type": "string"
        },
        {
          "internalType": "bytes",
          "name": "_publicKey",
          "type": "bytes"
        },
        {
          "internalType": "uint256",
          "name": "confirmPaymentTip",
          "type": "uint256"
        }
      ],
      "name": "createBorrowOrder",
      "outputs": [],
      "stateMutability": "nonpayable",
      "type": "function"
    },
    {
      "inputs": [
        {
          "internalType": "address",
          "name": "_token",
          "type": "address"
        },
        {
          "internalType": "uint256",
          "name": "_amount",
          "type": "uint256"
        },
        {
          "internalType": "uint256",
          "name": "_duration",
          "type": "uint256"
        },
        {
          "internalType": "enum AddressType",
          "name": "_addressType",
          "type": "uint8"
        },
        {
          "internalType": "bytes",
          "name": "_publicKey",
          "type": "bytes"
        },
        {
          "internalType": "uint256",
          "name": "confirmPaymentTip",
          "type": "uint256"
        }
      ],
      "name": "createLendOrder",
      "outputs": [],
      "stateMutability": "nonpayable",
      "type": "function"
    },
    {
      "inputs": [],
      "name": "createTime",
      "outputs": [
        {
          "internalType": "uint256",
          "name": "",
          "type": "uint256"
        }
      ],
      "stateMutability": "view",
      "type": "function"
    },
    {
      "inputs": [],
      "name": "getArbitrationRequestCost",
      "outputs": [
        {
          "internalType": "uint256",
          "name": "",
          "type": "uint256"
        }
      ],
      "stateMutability": "view",
      "type": "function"
    },
    {
      "inputs": [],
      "name": "getRegularUnlockTransferZkpStatus",
      "outputs": [
        {
          "internalType": "enum ProofStatus",
          "name": "",
          "type": "uint8"
        }
      ],
      "stateMutability": "view",
      "type": "function"
    },
    {
      "inputs": [],
      "name": "getToLenderTransferZkpStatus",
      "outputs": [
        {
          "internalType": "enum ProofStatus",
          "name": "",
          "type": "uint8"
        }
      ],
      "stateMutability": "view",
      "type": "function"
    },
    {
      "inputs": [
        {
          "internalType": "address",
          "name": "_loanTools",
          "type": "address"
        },
        {
          "internalType": "uint256",
          "name": "_takenExpireTime",
          "type": "uint256"
        },
        {
          "internalType": "uint256",
          "name": "_submitProofExpireTime",
          "type": "uint256"
        },
        {
          "internalType": "uint256",
          "name": "_repaidExpireTime",
          "type": "uint256"
        },
        {
          "internalType": "uint256",
          "name": "_proofedDelayBlock",
          "type": "uint256"
        },
        {
          "internalType": "address",
          "name": "_arbitrationPayee",
          "type": "address"
        },
        {
          "internalType": "uint256",
          "name": "_lockTime1",
          "type": "uint256"
        },
        {
          "internalType": "uint256",
          "name": "_lockTime2",
          "type": "uint256"
        }
      ],
      "name": "initialize",
      "outputs": [],
      "stateMutability": "nonpayable",
      "type": "function"
    },
    {
      "inputs": [],
      "name": "interestRate",
      "outputs": [
        {
          "internalType": "uint256",
          "name": "",
          "type": "uint256"
        }
      ],
      "stateMutability": "view",
      "type": "function"
    },
    {
      "inputs": [],
      "name": "interestValue",
      "outputs": [
        {
          "internalType": "uint256",
          "name": "",
          "type": "uint256"
        }
      ],
      "stateMutability": "view",
      "type": "function"
    },
    {
      "inputs": [],
      "name": "isArbitrationProofValid",
      "outputs": [
        {
          "internalType": "bool",
          "name": "",
          "type": "bool"
        }
      ],
      "stateMutability": "view",
      "type": "function"
    },
    {
      "inputs": [],
      "name": "lender",
      "outputs": [
        {
          "internalType": "address",
          "name": "",
          "type": "address"
        }
      ],
      "stateMutability": "view",
      "type": "function"
    },
    {
      "inputs": [],
      "name": "lenderAddressType",
      "outputs": [
        {
          "internalType": "enum AddressType",
          "name": "",
          "type": "uint8"
        }
      ],
      "stateMutability": "view",
      "type": "function"
    },
    {
      "inputs": [],
      "name": "lenderBtcAddress",
      "outputs": [
        {
          "internalType": "string",
          "name": "",
          "type": "string"
        }
      ],
      "stateMutability": "view",
      "type": "function"
    },
    {
      "inputs": [],
      "name": "lenderConfirmRewardsTips",
      "outputs": [
        {
          "internalType": "uint256",
          "name": "",
          "type": "uint256"
        }
      ],
      "stateMutability": "view",
      "type": "function"
    },
    {
      "inputs": [],
      "name": "lenderManuallyConfirmBTCTime",
      "outputs": [
        {
          "internalType": "uint256",
          "name": "",
          "type": "uint256"
        }
      ],
      "stateMutability": "view",
      "type": "function"
    },
    {
      "inputs": [],
      "name": "lenderProofBlock",
      "outputs": [
        {
          "internalType": "uint256",
          "name": "",
          "type": "uint256"
        }
      ],
      "stateMutability": "view",
      "type": "function"
    },
    {
      "inputs": [],
      "name": "lenderProofTime",
      "outputs": [
        {
          "internalType": "uint256",
          "name": "",
          "type": "uint256"
        }
      ],
      "stateMutability": "view",
      "type": "function"
    },
    {
      "inputs": [],
      "name": "lenderPublicKey",
      "outputs": [
        {
          "internalType": "bytes",
          "name": "",
          "type": "bytes"
        }
      ],
      "stateMutability": "view",
      "type": "function"
    },
    {
      "inputs": [],
      "name": "limitedDays",
      "outputs": [
        {
          "internalType": "uint256",
          "name": "",
          "type": "uint256"
        }
      ],
      "stateMutability": "view",
      "type": "function"
    },
    {
      "inputs": [],
      "name": "loanScript",
      "outputs": [
        {
          "internalType": "bytes",
          "name": "",
          "type": "bytes"
        }
      ],
      "stateMutability": "view",
      "type": "function"
    },
    {
      "inputs": [],
      "name": "lockTime1",
      "outputs": [
        {
          "internalType": "uint256",
          "name": "",
          "type": "uint256"
        }
      ],
      "stateMutability": "view",
      "type": "function"
    },
    {
      "inputs": [],
      "name": "lockTime2",
      "outputs": [
        {
          "internalType": "uint256",
          "name": "",
          "type": "uint256"
        }
      ],
      "stateMutability": "view",
      "type": "function"
    },
    {
      "inputs": [],
      "name": "network",
      "outputs": [
        {
          "internalType": "string",
          "name": "",
          "type": "string"
        }
      ],
      "stateMutability": "view",
      "type": "function"
    },
    {
      "inputs": [],
      "name": "orderType",
      "outputs": [
        {
          "internalType": "enum OrderType",
          "name": "",
          "type": "uint8"
        }
      ],
      "stateMutability": "view",
      "type": "function"
    },
    {
      "inputs": [],
      "name": "owner",
      "outputs": [
        {
          "internalType": "address",
          "name": "",
          "type": "address"
        }
      ],
      "stateMutability": "view",
      "type": "function"
    },
    {
      "inputs": [],
      "name": "preImage",
      "outputs": [
        {
          "internalType": "bytes",
          "name": "",
          "type": "bytes"
        }
      ],
      "stateMutability": "view",
      "type": "function"
    },
    {
      "inputs": [],
      "name": "preImageHash",
      "outputs": [
        {
          "internalType": "bytes32",
          "name": "",
          "type": "bytes32"
        }
      ],
      "stateMutability": "view",
      "type": "function"
    },
    {
      "inputs": [],
      "name": "proofedDelayBlock",
      "outputs": [
        {
          "internalType": "uint256",
          "name": "",
          "type": "uint256"
        }
      ],
      "stateMutability": "view",
      "type": "function"
    },
    {
      "inputs": [],
      "name": "renounceOwnership",
      "outputs": [],
      "stateMutability": "nonpayable",
      "type": "function"
    },
    {
      "inputs": [],
      "name": "repaidExpireTime",
      "outputs": [
        {
          "internalType": "uint256",
          "name": "",
          "type": "uint256"
        }
      ],
      "stateMutability": "view",
      "type": "function"
    },
    {
      "inputs": [
        {
          "internalType": "bytes",
          "name": "btcRawData",
          "type": "bytes"
        },
        {
          "internalType": "bytes",
          "name": "signature",
          "type": "bytes"
        }
      ],
      "name": "repay",
      "outputs": [],
      "stateMutability": "nonpayable",
      "type": "function"
    },
    {
      "inputs": [],
      "name": "repayBtcRawData",
      "outputs": [
        {
          "internalType": "bytes",
          "name": "",
          "type": "bytes"
        }
      ],
      "stateMutability": "view",
      "type": "function"
    },
    {
      "inputs": [],
      "name": "repaySignature",
      "outputs": [
        {
          "internalType": "bytes",
          "name": "",
          "type": "bytes"
        }
      ],
      "stateMutability": "view",
      "type": "function"
    },
    {
      "inputs": [
        {
          "internalType": "bytes",
          "name": "btcRawData",
          "type": "bytes"
        },
        {
          "internalType": "bytes",
          "name": "signature",
          "type": "bytes"
        }
      ],
      "name": "requestArbitration",
      "outputs": [],
      "stateMutability": "nonpayable",
      "type": "function"
    },
    {
      "inputs": [],
      "name": "status",
      "outputs": [
        {
          "internalType": "enum OrderStatus",
          "name": "",
          "type": "uint8"
        }
      ],
      "stateMutability": "view",
      "type": "function"
    },
    {
      "inputs": [],
      "name": "submitProofExpirationTime",
      "outputs": [
        {
          "internalType": "uint256",
          "name": "",
          "type": "uint256"
        }
      ],
      "stateMutability": "view",
      "type": "function"
    },
    {
      "inputs": [
        {
          "internalType": "bytes",
          "name": "txData",
          "type": "bytes"
        },
        {
          "internalType": "bytes[]",
          "name": "utxos",
          "type": "bytes[]"
        },
        {
          "internalType": "uint32",
          "name": "blockHeight",
          "type": "uint32"
        },
        {
          "components": [
            {
              "internalType": "bytes32[]",
              "name": "proof",
              "type": "bytes32[]"
            },
            {
              "internalType": "bytes32",
              "name": "root",
              "type": "bytes32"
            },
            {
              "internalType": "bytes32",
              "name": "leaf",
              "type": "bytes32"
            },
            {
              "internalType": "bool[]",
              "name": "flags",
              "type": "bool[]"
            }
          ],
          "internalType": "struct MerkleProofData",
          "name": "merkleProof",
          "type": "tuple"
        }
      ],
      "name": "submitRegularUnlockTransferProof",
      "outputs": [],
      "stateMutability": "nonpayable",
      "type": "function"
    },
    {
      "inputs": [
        {
          "internalType": "bytes",
          "name": "txData",
          "type": "bytes"
        },
        {
          "internalType": "bytes[]",
          "name": "utxos",
          "type": "bytes[]"
        },
        {
          "internalType": "uint32",
          "name": "blockHeight",
          "type": "uint32"
        },
        {
          "components": [
            {
              "internalType": "bytes32[]",
              "name": "proof",
              "type": "bytes32[]"
            },
            {
              "internalType": "bytes32",
              "name": "root",
              "type": "bytes32"
            },
            {
              "internalType": "bytes32",
              "name": "leaf",
              "type": "bytes32"
            },
            {
              "internalType": "bool[]",
              "name": "flags",
              "type": "bool[]"
            }
          ],
          "internalType": "struct MerkleProofData",
          "name": "merkleProof",
          "type": "tuple"
        }
      ],
      "name": "submitToLenderTransferProof",
      "outputs": [],
      "stateMutability": "nonpayable",
      "type": "function"
    },
    {
      "inputs": [
        {
          "internalType": "string",
          "name": "btcAddress",
          "type": "string"
        },
        {
          "internalType": "bytes",
          "name": "publicKey",
          "type": "bytes"
        },
        {
          "internalType": "bytes32",
          "name": "preimageHash",
          "type": "bytes32"
        },
        {
          "internalType": "string",
          "name": "net",
          "type": "string"
        },
        {
          "internalType": "uint256",
          "name": "confirmPaymentTip",
          "type": "uint256"
        }
      ],
      "name": "takeOrder",
      "outputs": [],
      "stateMutability": "nonpayable",
      "type": "function"
    },
    {
      "inputs": [],
      "name": "takenExpireTime",
      "outputs": [
        {
          "internalType": "uint256",
          "name": "",
          "type": "uint256"
        }
      ],
      "stateMutability": "view",
      "type": "function"
    },
    {
      "inputs": [],
      "name": "takenTime",
      "outputs": [
        {
          "internalType": "uint256",
          "name": "",
          "type": "uint256"
        }
      ],
      "stateMutability": "view",
      "type": "function"
    },
    {
      "inputs": [],
      "name": "toBorrowerBtcTx",
      "outputs": [
        {
          "internalType": "bytes32",
          "name": "wTxId",
          "type": "bytes32"
        },
        {
          "internalType": "bytes32",
          "name": "txId",
          "type": "bytes32"
        }
      ],
      "stateMutability": "view",
      "type": "function"
    },
    {
      "inputs": [],
      "name": "toBorrowerMerkleProofTx",
      "outputs": [
        {
          "internalType": "bytes32",
          "name": "",
          "type": "bytes32"
        }
      ],
      "stateMutability": "view",
      "type": "function"
    },
    {
      "inputs": [],
      "name": "toLenderBtcTx",
      "outputs": [
        {
          "internalType": "bytes32",
          "name": "wTxId",
          "type": "bytes32"
        },
        {
          "internalType": "bytes32",
          "name": "txId",
          "type": "bytes32"
        }
      ],
      "stateMutability": "view",
      "type": "function"
    },
    {
      "inputs": [],
      "name": "toLenderMerkleProofTx",
      "outputs": [
        {
          "internalType": "bytes32",
          "name": "",
          "type": "bytes32"
        }
      ],
      "stateMutability": "view",
      "type": "function"
    },
    {
      "inputs": [],
      "name": "token",
      "outputs": [
        {
          "internalType": "address",
          "name": "",
          "type": "address"
        }
      ],
      "stateMutability": "view",
      "type": "function"
    },
    {
      "inputs": [],
      "name": "tokenAmount",
      "outputs": [
        {
          "internalType": "uint256",
          "name": "",
          "type": "uint256"
        }
      ],
      "stateMutability": "view",
      "type": "function"
    },
    {
      "inputs": [
        {
          "internalType": "address",
          "name": "newOwner",
          "type": "address"
        }
      ],
      "name": "transferOwnership",
      "outputs": [],
      "stateMutability": "nonpayable",
      "type": "function"
    }
  ],
  "bytecode": "0x608060405234801561001057600080fd5b50614a96806100206000396000f3fe608060405234801561001057600080fd5b50600436106103c55760003560e01c80637b29dab8116101ff578063bcbe50a41161011a578063ede8df18116100ad578063f2fde38b1161007c578063f2fde38b14610727578063f8063a951461073a578063fc0c546a1461074d578063fdf0f7ac1461076057600080fd5b8063ede8df18146106eb578063eec7faa114610703578063f007ca541461070c578063f2e125671461071457600080fd5b8063d8bd4fac116100e9578063d8bd4fac146106c2578063db2561d4146106cb578063dd106890146106d4578063e01b5c54146106e257600080fd5b8063bcbe50a414610694578063bcead63e1461069d578063cfe80592146106b0578063d82039a8146106b957600080fd5b80639296352911610192578063a3c3c87711610161578063a3c3c87714610642578063a8356d3e1461064b578063ae15bf5e1461065e578063bb10b0e71461067157600080fd5b8063929635291461061557806392d09ceb1461061d57806395aa5581146106265780639f1b47201461062f57600080fd5b8063843c195c116101ce578063843c195c146105b957806387a9796b146105d35780638b3bf720146105dc5780638da5cb5b146105e557600080fd5b80637b29dab81461058c5780637c3a00fd146105955780637df1f1b91461059e578063838d7513146105b157600080fd5b806339cb5b9c116102ef5780636713e3f0116102825780636f17591f116102515780636f17591f14610552578063715018a61461057357806375ca1db71461057b57806379ddeee11461058357600080fd5b80636713e3f0146105265780636739afca146105395780636901b372146105415780636ae5d1101461054a57600080fd5b8063572a15a2116102be578063572a15a214610503578063609d67331461050c57806361dcd7ab1461051457806367125e1c1461051d57600080fd5b806339cb5b9c146104d65780633ba4757a146104df5780634f35014a146104f2578063554730fd146104fa57600080fd5b806317ff940d11610367578063200d2ed211610336578063200d2ed21461048c5780632d8dcef1146104a657806331d8486d146104ae57806334ee65f0146104c357600080fd5b806317ff940d1461045f57806318ed9e1214610468578063192172d6146104715780631fd47bd41461048457600080fd5b80630c9e6db6116103a35780630c9e6db6146104245780631159042c1461043b57806311ff964414610443578063124520bd1461045657600080fd5b8063064f45bd146103ca5780630833b4a1146103df57806309a5084b1461040f575b600080fd5b6103dd6103d8366004613a2f565b610769565b005b6028546103f2906001600160a01b031681565b6040516001600160a01b0390911681526020015b60405180910390f35b610417610b4c565b6040516104069190613b08565b61042d60125481565b604051908152602001610406565b610417610bda565b6103dd610451366004613b22565b610be7565b61042d60065481565b61042d60105481565b61042d601e5481565b6103dd61047f366004613c60565b610d90565b610417611027565b6026546104999060ff1681565b6040516104069190613cee565b6103dd611034565b6104b6611313565b6040516104069190613cfc565b6103dd6104d1366004613d16565b61138f565b61042d60185481565b6103dd6104ed366004613db3565b61174d565b610417611848565b61042d60155481565b61042d60165481565b610417611855565b61042d600e5481565b61042d60295481565b6103dd610534366004613dd5565b611862565b610417611b3f565b61042d60215481565b610417611b4c565b60005461056690600160a01b900460ff1681565b6040516104069190613ea0565b6103dd611b59565b61042d611b6d565b61042d60095481565b61042d60145481565b61042d60085481565b6001546103f2906001600160a01b031681565b610417611be5565b600b546105c69060ff1681565b6040516104069190613eae565b61042d60175481565b61042d60225481565b7f9016d09d72d40fdae2fd8ceac6b6234c7706214fd39c1cd1e609a0528c199300546001600160a01b03166103f2565b6104b6611bf2565b61042d600d5481565b61042d602c5481565b6103dd61063d366004613ec2565b611c28565b61042d60205481565b6103dd610659366004613f39565b61221e565b6103dd61066c366004613db3565b61240d565b601a54601b5461067f919082565b60408051928352602083019190915201610406565b61042d602d5481565b6007546103f2906001600160a01b031681565b61042d600f5481565b61042d60135481565b61042d601f5481565b61042d602a5481565b601c54601d5461067f919082565b61042d60195481565b6106f36125ab565b6040519015158152602001610406565b61042d60055481565b61041761278c565b6103dd610722366004613f39565b612799565b6103dd610735366004614055565b61297c565b6103dd610748366004614072565b6129ba565b6004546103f2906001600160a01b031681565b61042d60115481565b6004546001600160a01b0316156107b15760405162461bcd60e51b815260206004820152600760248201526610dc99585d195960ca1b60448201526064015b60405180910390fd5b6000805460ff60a01b1916600160a01b17905560078054326001600160a01b031991821617909155600480549091166001600160a01b03891617905560058690556006859055600a61080483858361415a565b50600b805485919060ff1916600183600781111561082457610824613cc4565b021790555042600e556026805460ff19169055600185101561084557600194505b6000546040516303065a9d60e21b8152600481018790526001600160a01b0390911690630c196a7490602401602060405180830381865afa15801561088e573d6000803e3d6000fd5b505050506040513d601f19601f820116820180604052508101906108b2919061421b565b60085560008054600480546005546040516360fe97d160e11b81526001600160a01b039283169381019390935260248301529091169063c1fd2fa290604401602060405180830381865afa15801561090e573d6000803e3d6000fd5b505050506040513d601f19601f82011682018060405250810190610932919061421b565b90506000600460009054906101000a90046001600160a01b03166001600160a01b031663313ce5676040518163ffffffff1660e01b8152600401602060405180830381865afa158015610989573d6000803e3d6000fd5b505050506040513d601f19601f820116820180604052508101906109ad9190614234565b60005460085460405163b0b84f4360e01b815260048101869052602481019190915260ff929092169250670de0b6b3a7640000916001600160a01b039091169063b0b84f4390604401602060405180830381865afa158015610a13573d6000803e3d6000fd5b505050506040513d601f19601f82011682018060405250810190610a37919061421b565b610a419190614283565b600981905560005460048054604051632f3eefeb60e21b81526001600160a01b039182169281019290925260248201869052604482019390935291169063bcfbbfac90606401602060405180830381865afa158015610aa4573d6000803e3d6000fd5b505050506040513d601f19601f82011682018060405250810190610ac8919061421b565b600d556012811015610b04576000610aeb600a610ae6846012614297565b612ae1565b905080600954610afb9190614283565b60095550610b34565b6012811115610b34576000610b1f600a610ae6601285614297565b905080600954610b2f91906142aa565b600955505b6020839055610b41612b59565b505050505050505050565b600a8054610b59906140db565b80601f0160208091040260200160405190810160405280929190818152602001828054610b85906140db565b8015610bd25780601f10610ba757610100808354040283529160200191610bd2565b820191906000526020600020905b815481529060010190602001808311610bb557829003601f168201915b505050505081565b600c8054610b59906140db565b7ff0c57e16840df040f15088dc2f81fe391c3923bec73e23a9662efc9c229c6a00805468010000000000000000810460ff16159067ffffffffffffffff16600081158015610c325750825b905060008267ffffffffffffffff166001148015610c4f5750303b155b905081158015610c5d575080155b15610c7b5760405163f92ee8a960e01b815260040160405180910390fd5b845467ffffffffffffffff191660011785558315610caf57845468ff00000000000000001916680100000000000000001785555b8c6000806101000a8154816001600160a01b0302191690836001600160a01b031602179055508b6015819055508a601681905550896017819055508860148190555087602860006101000a8154816001600160a01b0302191690836001600160a01b031602179055508660298190555085602a819055508a602c81905550610d3688612bd6565b8315610d8157845468ff000000000000000019168555604051600181527fc7f505b2f371ae2175ee4913f4499e1f2633a7b5936321eed1cdaeb6115181d29060200160405180910390a15b50505050505050505050505050565b610d98612be7565b610de45760405162461bcd60e51b815260206004820152601260248201527f4e6f426f72726f7765724f724c656e646572000000000000000000000000000060448201526064016107a8565b610dec612c20565b610e385760405162461bcd60e51b815260206004820152600c60248201527f43616e277452657175657374000000000000000000000000000000000000000060448201526064016107a8565b6040805160208101909152600081526001546001600160a01b03163203610ee757602b8054610e66906140db565b80601f0160208091040260200160405190810160405280929190818152602001828054610e92906140db565b8015610edf5780601f10610eb457610100808354040283529160200191610edf565b820191906000526020600020905b815481529060010190602001808311610ec257829003601f168201915b505050505090505b600080546040516376101f7760e11b815282916001600160a01b03169063ec203eee90610f1e9088908890889030906004016142c1565b60408051808303816000875af1158015610f3c573d6000803e3d6000fd5b505050506040513d601f19601f82011682018060405250810190610f609190614315565b91509150610f7082323084612e7c565b60285460405163a9059cbb60e01b81526001600160a01b039182166004820152602481018390529083169063a9059cbb906044016020604051808303816000875af1158015610fc3573d6000803e3d6000fd5b505050506040513d601f19601f82011682018060405250810190610fe79190614351565b506026805460ff1916600817905560405130907f7531d6e7eee2f88eac00e46b6efa3a758e0639beff1dfa19510baaaf7aadee7290600090a25050505050565b60238054610b59906140db565b600960265460ff16600981111561104d5761104d613cc4565b0361109a5760405162461bcd60e51b815260206004820152600660248201527f436c6f736564000000000000000000000000000000000000000000000000000060448201526064016107a8565b600060265460ff1660098111156110b3576110b3613cc4565b0361118d57600054600154600754604051638d03fe2d60e01b81526001600160a01b0380851694638d03fe2d9461110094600160a01b90920460ff1693908316929091169060040161436e565b602060405180830381865afa15801561111d573d6000803e3d6000fd5b505050506040513d601f19601f820116820180604052508101906111419190614351565b61118d5760405162461bcd60e51b815260206004820152600e60248201527f496e76616c696443726561746f7200000000000000000000000000000000000060448201526064016107a8565b61119561300c565b6111e15760405162461bcd60e51b815260206004820152600c60248201527f4e6f74436c6f736561626c65000000000000000000000000000000000000000060448201526064016107a8565b600480546040516370a0823160e01b815230928101929092526000916001600160a01b03909116906370a0823190602401602060405180830381865afa15801561122f573d6000803e3d6000fd5b505050506040513d601f19601f82011682018060405250810190611253919061421b565b905080156112d8576004805460075460405163a9059cbb60e01b81526001600160a01b039182169381019390935260248301849052169063a9059cbb906044016020604051808303816000875af11580156112b2573d6000803e3d6000fd5b505050506040513d601f19601f820116820180604052508101906112d69190614351565b505b6026805460ff1916600917905560405130907fc674f2738d835a5ee10ac4c9fc95355170bec02f7b438d737c8821ca222640f990600090a250565b60008054601a546040516346423aa760e01b81526001600160a01b03909216916346423aa7916113499160040190815260200190565b602060405180830381865afa158015611366573d6000803e3d6000fd5b505050506040513d601f19601f8201168201806040525081019061138a919061439d565b905090565b6004546001600160a01b0316156113d25760405162461bcd60e51b815260206004820152600760248201526610dc99585d195960ca1b60448201526064016107a8565b6000805460ff60a01b1916905560018054326001600160a01b031991821617909155600480549091166001600160a01b038a1617905560058790556006869055600261141f85878361415a565b50600361142d83858361415a565b5042600e556026805460ff19169055600186101561144a57600195505b6000546040516303065a9d60e21b8152600481018890526001600160a01b0390911690630c196a7490602401602060405180830381865afa158015611493573d6000803e3d6000fd5b505050506040513d601f19601f820116820180604052508101906114b7919061421b565b60085560008054600480546005546040516360fe97d160e11b81526001600160a01b039283169381019390935260248301529091169063c1fd2fa290604401602060405180830381865afa158015611513573d6000803e3d6000fd5b505050506040513d601f19601f82011682018060405250810190611537919061421b565b90506000600460009054906101000a90046001600160a01b03166001600160a01b031663313ce5676040518163ffffffff1660e01b8152600401602060405180830381865afa15801561158e573d6000803e3d6000fd5b505050506040513d601f19601f820116820180604052508101906115b29190614234565b60005460085460405163b0b84f4360e01b815260048101869052602481019190915260ff929092169250670de0b6b3a7640000916001600160a01b039091169063b0b84f4390604401602060405180830381865afa158015611618573d6000803e3d6000fd5b505050506040513d601f19601f8201168201806040525081019061163c919061421b565b6116469190614283565b600981905560005460048054604051632f3eefeb60e21b81526001600160a01b039182169281019290925260248201869052604482019390935291169063bcfbbfac90606401602060405180830381865afa1580156116a9573d6000803e3d6000fd5b505050506040513d601f19601f820116820180604052508101906116cd919061421b565b600d5560128110156117045760006116eb600a610ae6846012614297565b9050806009546116fb9190614283565b60095550611734565b601281111561173457600061171f600a610ae6601285614297565b90508060095461172f91906142aa565b600955505b6021839055611741612b59565b50505050505050505050565b6117556135ab565b600160265460ff16600981111561176e5761176e613cc4565b101580156117925750600360265460ff16600981111561179057611790613cc4565b105b6117cc5760405162461bcd60e51b815260206004820152600b60248201526a4572726f7253746174757360a81b60448201526064016107a8565b600160265460ff1660098111156117e5576117e5613cc4565b036117fe576028805460ff60a01b1916600160a01b1790555b6026805460ff19166003179055601a829055601b81905542602d5560405130907f20ace08cd5d5d7fac4671a19793c5e5dd866a6321ce3e9e859c2cef2afb1685a90600090a25050565b60038054610b59906140db565b60258054610b59906140db565b856118af5760405162461bcd60e51b815260206004820152600a60248201527f427463416464726573730000000000000000000000000000000000000000000060448201526064016107a8565b600060265460ff1660098111156118c8576118c8613cc4565b146119035760405162461bcd60e51b815260206004820152600b60248201526a4572726f7253746174757360a81b60448201526064016107a8565b3260008054600160a01b900460ff16600181111561192357611923613cc4565b036119d857600a61193586888361415a565b50600780546001600160a01b0319166001600160a01b03838116918217909255600480546005546040516323b872dd60e01b81529283019390935230602483015260448201929092529116906323b872dd906064016020604051808303816000875af11580156119a9573d6000803e3d6000fd5b505050506040513d601f19601f820116820180604052508101906119cd9190614351565b506020829055611a3a565b6001600054600160a01b900460ff1660018111156119f8576119f8613cc4565b03611a3a576002611a0a888a8361415a565b50600180546001600160a01b0319166001600160a01b0383161790556003611a3386888361415a565b5060218290555b6022849055611a47613605565b602b90611a5490826143be565b50600054604051634666230560e11b81526001600160a01b0390911690638ccc460a90611a8890602b9087906004016144fb565b600060405180830381865afa158015611aa5573d6000803e3d6000fd5b505050506040513d6000823e601f3d908101601f19168201604052611acd9190810190614550565b600c90611ada90826143be565b5042600f556027611aeb84826143be565b506026805460ff1916600117905560405130907f6d11e9735746e0b84489991e71b785d42d5346d323d4258ffb956c3ea91433e890611b2d908b908b906145c2565b60405180910390a25050505050505050565b60278054610b59906140db565b60028054610b59906140db565b611b6161375a565b611b6b60006137b5565b565b60008060009054906101000a90046001600160a01b03166001600160a01b0316631f0038d06040518163ffffffff1660e01b8152600401602060405180830381865afa158015611bc1573d6000803e3d6000fd5b505050506040513d601f19601f8201168201806040525081019061138a919061421b565b602b8054610b59906140db565b60008054601c546040516346423aa760e01b81526001600160a01b03909216916346423aa7916113499160040190815260200190565b600260265460ff166009811115611c4157611c41613cc4565b03611fc857601654601254611c569042614297565b10611c8d5760405162461bcd60e51b8152602060048201526007602482015266115e1c1a5c995960ca1b60448201526064016107a8565b611ce26040518061012001604052806000815260200160008152602001600080191681526020016060815260200160608152602001606081526020016000801916815260200160608152602001600081525090565b60185481526014546020820152601a54604082015260278054611d04906140db565b80601f0160208091040260200160405190810160405280929190818152602001828054611d30906140db565b8015611d7d5780601f10611d5257610100808354040283529160200191611d7d565b820191906000526020600020905b815481529060010190602001808311611d6057829003601f168201915b5050505050816060018190525060028054611d97906140db565b80601f0160208091040260200160405190810160405280929190818152602001828054611dc3906140db565b8015611e105780601f10611de557610100808354040283529160200191611e10565b820191906000526020600020905b815481529060010190602001808311611df357829003601f168201915b50505050506080820152601e5460c0820152602b8054611e2f906140db565b80601f0160208091040260200160405190810160405280929190818152602001828054611e5b906140db565b8015611ea85780601f10611e7d57610100808354040283529160200191611ea8565b820191906000526020600020905b815481529060010190602001808311611e8b57829003601f168201915b50505050508160e00181905250600c8054611ec2906140db565b80601f0160208091040260200160405190810160405280929190818152602001828054611eee906140db565b8015611f3b5780601f10611f1057610100808354040283529160200191611f3b565b820191906000526020600020905b815481529060010190602001808311611f1e57829003601f168201915b505050505060a0820152600d546101008201526000546040516356cbca3b60e11b81526001600160a01b039091169063ad97947690611f7e908490600401614679565b602060405180830381865afa158015611f9b573d6000803e3d6000fd5b505050506040513d601f19601f82011682018060405250810190611fbf919061421b565b601b5550612068565b600360265460ff166009811115611fe157611fe1613cc4565b0361203257602c54602d54611ff69042614297565b1061202d5760405162461bcd60e51b8152602060048201526007602482015266115e1c1a5c995960ca1b60448201526064016107a8565b612068565b60405162461bcd60e51b815260206004820152600b60248201526a4572726f7253746174757360a81b60448201526064016107a8565b4260105560405160009060029061208090849061468c565b602060405180830381855afa15801561209d573d6000803e3d6000fd5b5050506040513d601f19601f820116820180604052508101906120c0919061421b565b905060225481146121135760405162461bcd60e51b815260206004820152600f60248201527f496e76616c6964507265496d616765000000000000000000000000000000000060448201526064016107a8565b602361211f83826143be565b506026805460ff19166004908117909155805460015460055460405163a9059cbb60e01b81526001600160a01b0392831694810194909452602484015260009291169063a9059cbb906044016020604051808303816000875af115801561218a573d6000803e3d6000fd5b505050506040513d601f19601f820116820180604052508101906121ae9190614351565b9050806121ee5760405162461bcd60e51b815260206004820152600e60248201526d151c985b9cd9995c91985a5b195960921b60448201526064016107a8565b60405130907fdff56b8f99530f9d2f93cd47e4132c51d0bd136b90399f5fc37925f7687782bd90600090a2505050565b600754612233906001600160a01b0316613826565b600080546001600160a01b031663574417fb84602085013561225586806146a8565b604088013561226760608a018a6146a8565b6040518863ffffffff1660e01b815260040161228997969594939291906146f2565b61010060405180830381865afa1580156122a7573d6000803e3d6000fd5b505050506040513d601f19601f820116820180604052508101906122cb91906147b1565b604080840135601f558051602081018252600080825280549251630b69789760e31b8152939450909290916001600160a01b031690635b4bc4b89061231b908a908a90600c9088906004016148bb565b6020604051808303816000875af115801561233a573d6000803e3d6000fd5b505050506040513d601f19601f8201168201806040525081019061235e919061421b565b9050600560265460ff16600981111561237957612379613cc4565b036123b45760175460115461238e9042614297565b10156123b4574260135560e083015163ffffffff166019556026805460ff191660061790555b601c819055604080850135601d55602654905130917f256b3543668f825758d3ed3818332ffec9b26cc9a4042131007d709c05ba426f916123fc91859160ff90911690614913565b60405180910390a250505050505050565b6124156138f1565b600560265460ff16600981111561242e5761242e613cc4565b101580156124525750600760265460ff16600981111561245057612450613cc4565b105b61248c5760405162461bcd60e51b815260206004820152600b60248201526a4572726f7253746174757360a81b60448201526064016107a8565b6026805460ff191660071790556020541561251f576004805460015460205460405163a9059cbb60e01b81526001600160a01b03928316948101949094526024840152169063a9059cbb906044016020604051808303816000875af11580156124f9573d6000803e3d6000fd5b505050506040513d601f19601f8201168201806040525081019061251d9190614351565b505b601c829055601d81905560405130907fea92170f73cb965b87ec4b98c1e877717b0cb9dee3db97f93d7d939cfbcaff3f90600090a2306001600160a01b0316632d8dcef16040518163ffffffff1660e01b8152600401600060405180830381600087803b15801561258f57600080fd5b505af11580156125a3573d6000803e3d6000fd5b505050505050565b604080516101208101825260008082526020820181905260608083018190526080830181905260a0830181905260c0830182905260e08301526101008201819052601b549282019290925260278054612603906140db565b80601f016020809104026020016040519081016040528092919081815260200182805461262f906140db565b801561267c5780601f106126515761010080835404028352916020019161267c565b820191906000526020600020905b81548152906001019060200180831161265f57829003601f168201915b50505050508160600181905250602b8054612696906140db565b80601f01602080910402602001604051908101604052809291908181526020018280546126c2906140db565b801561270f5780601f106126e45761010080835404028352916020019161270f565b820191906000526020600020905b8154815290600101906020018083116126f257829003601f168201915b505050505060e0820152600d54610100820152600054604051632980140760e21b81526001600160a01b039091169063a600501c906127549030908590600401614927565b60006040518083038186803b15801561276c57600080fd5b505afa158015612780573d6000803e3d6000fd5b50505050600191505090565b60248054610b59906140db565b6001546127ae906001600160a01b0316613826565b600080546001600160a01b031663574417fb8460208501356127d086806146a8565b60408801356127e260608a018a6146a8565b6040518863ffffffff1660e01b815260040161280497969594939291906146f2565b61010060405180830381865afa158015612822573d6000803e3d6000fd5b505050506040513d601f19601f8201168201806040525081019061284691906147b1565b604080840135601e55600080549151630b69789760e31b8152929350916001600160a01b0390911690635b4bc4b89061288b9089908990600290602b90600401614949565b6020604051808303816000875af11580156128aa573d6000803e3d6000fd5b505050506040513d601f19601f820116820180604052508101906128ce919061421b565b9050600160265460ff1660098111156128e9576128e9613cc4565b0361292457601554600f546128fe9042614297565b1015612924574260125560e082015163ffffffff166018556026805460ff191660021790555b601a819055604080840135601b55602654905130917fad4a757eaafd4e9e2ac30665e7b33c6432ba669ed8342fe706fe336bd73e136f9161296c91859160ff90911690614913565b60405180910390a2505050505050565b61298461375a565b6001600160a01b0381166129ae57604051631e4fbdf760e01b8152600060048201526024016107a8565b6129b7816137b5565b50565b6129c26138f1565b600460265460ff1660098111156129db576129db613cc4565b14612a165760405162461bcd60e51b815260206004820152600b60248201526a4572726f7253746174757360a81b60448201526064016107a8565b6000600954600554612a289190614996565b602854909150600160a01b900460ff1615612a4d57602154612a4a9082614996565b90505b600454600154612a6b916001600160a01b0390811691163084612e7c565b426011556026805460ff191660051790556024612a8883826143be565b506025612a9684868361415a565b5060095460055460405130927fbde4f70bebdcf6832a0d2954cd7c73f4f45e80de1693ad6c4b916e9e93a7ae4392612ad3928990899089906149a9565b60405180910390a250505050565b6000811580612aee575082155b15612afb57506000612b53565b81600103612b0a575081612b53565b60015b8215612b5057612b1e6002846149e7565b600103612b3257612b2f84826142aa565b90505b612b3c84806142aa565b9350612b49600284614283565b9250612b0d565b90505b92915050565b610200602954600654610e10612b6f91906142aa565b612b7a9060186142aa565b612b849190614996565b612b8e9190614283565b6240000017602955602a546006546102009190612bad90610e106142aa565b612bb89060186142aa565b612bc29190614996565b612bcc9190614283565b6240000017602a55565b612bde61394b565b6129b781613999565b6001546000906001600160a01b03163203612c025750600190565b6007546001600160a01b03163203612c1a5750600190565b50600090565b6000600260265460ff166009811115612c3b57612c3b613cc4565b03612da95760008054601a546012546016546018546014546040516308266c9f60e01b8152600481019590955260248501939093526044840191909152606483015260848201526001600160a01b03909116906308266c9f9060a401602060405180830381865afa158015612cb4573d6000803e3d6000fd5b505050506040513d601f19601f82011682018060405250810190612cd89190614351565b905080612d275760405162461bcd60e51b815260206004820152600960248201527f4e6f45787069726564000000000000000000000000000000000000000000000060448201526064016107a8565b6000306001600160a01b03166331d8486d6040518163ffffffff1660e01b8152600401602060405180830381865afa158015612d67573d6000803e3d6000fd5b505050506040513d601f19601f82011682018060405250810190612d8b919061439d565b90506001816002811115612da157612da1613cc4565b149250505090565b600660265460ff166009811115612dc257612dc2613cc4565b03612e48576000306001600160a01b031663929635296040518163ffffffff1660e01b8152600401602060405180830381865afa158015612e07573d6000803e3d6000fd5b505050506040513d601f19601f82011682018060405250810190612e2b919061439d565b90506002816002811115612e4157612e41613cc4565b1491505090565b600560265460ff166009811115612e6157612e61613cc4565b03612c1a57601754601154612e769042614297565b11905090565b604051636eb1769f60e11b81526001600160a01b03848116600483015283811660248301526000919086169063dd62ed3e90604401602060405180830381865afa158015612ece573d6000803e3d6000fd5b505050506040513d601f19601f82011682018060405250810190612ef2919061421b565b90506000198114612f4d5781811015612f4d5760405162461bcd60e51b815260206004820152600b60248201527f4e6f416c6c6f77616e636500000000000000000000000000000000000000000060448201526064016107a8565b6040516323b872dd60e01b81526001600160a01b038581166004830152848116602483015260448201849052600091908716906323b872dd906064016020604051808303816000875af1158015612fa8573d6000803e3d6000fd5b505050506040513d601f19601f82011682018060405250810190612fcc9190614351565b9050806125a35760405162461bcd60e51b815260206004820152600e60248201526d151c985b9cd9995c91985a5b195960921b60448201526064016107a8565b6000600160265460ff16600981111561302757613027613cc4565b0361303c57601554600f54612e769042614297565b600260265460ff16600981111561305557613055613cc4565b036130f157600054601a546012546016546018546014546040516308266c9f60e01b8152600481019590955260248501939093526044840191909152606483015260848201526001600160a01b03909116906308266c9f9060a401602060405180830381865afa1580156130cd573d6000803e3d6000fd5b505050506040513d601f19601f8201168201806040525081019061138a9190614351565b600660265460ff16600981111561310a5761310a613cc4565b03613466576131646040518061012001604052806000815260200160008152602001600080191681526020016060815260200160608152602001606081526020016000801916815260200160608152602001600081525090565b60195481526014546020820152601c54604082015260278054613186906140db565b80601f01602080910402602001604051908101604052809291908181526020018280546131b2906140db565b80156131ff5780601f106131d4576101008083540402835291602001916131ff565b820191906000526020600020905b8154815290600101906020018083116131e257829003601f168201915b5050505050816060018190525060028054613219906140db565b80601f0160208091040260200160405190810160405280929190818152602001828054613245906140db565b80156132925780601f1061326757610100808354040283529160200191613292565b820191906000526020600020905b81548152906001019060200180831161327557829003601f168201915b50505050506080820152601f5460c082015260408051602081019091526000815260e0820152600c80546132c5906140db565b80601f01602080910402602001604051908101604052809291908181526020018280546132f1906140db565b801561333e5780601f106133135761010080835404028352916020019161333e565b820191906000526020600020905b81548152906001019060200180831161332157829003601f168201915b505050505060a0820152600d54610100820152600054601b54604051632ae6a8ad60e01b81526001600160a01b0390921691632ae6a8ad91613385918591906004016149fb565b602060405180830381865afa1580156133a2573d6000803e3d6000fd5b505050506040513d601f19601f820116820180604052508101906133c6919061421b565b601d55600054601c546013546016546019546014546040516376923cc160e11b8152600481019590955260248501939093526044840191909152606483015260848201526001600160a01b039091169063ed2479829060a401602060405180830381865afa15801561343c573d6000803e3d6000fd5b505050506040513d601f19601f820116820180604052508101906134609190614351565b91505090565b600460265460ff16600981111561347f5761347f613cc4565b036134ab576006546134929060186142aa565b61349e90610e106142aa565b601054612e769042614297565b600560265460ff1660098111156134c4576134c4613cc4565b036134d957601754601154612e769042614297565b600860265460ff1660098111156134f2576134f2613cc4565b0361353557306001600160a01b031663ede8df186040518163ffffffff1660e01b8152600401602060405180830381865afa1580156130cd573d6000803e3d6000fd5b600360265460ff16600981111561354e5761354e613cc4565b0361356357602c54602d54612e769042614297565b600760265460ff16600981111561357c5761357c613cc4565b036135875750600190565b600060265460ff1660098111156135a0576135a0613cc4565b03612c1a5750600190565b6007546001600160a01b03163214611b6b5760405162461bcd60e51b815260206004820152600960248201527f4e6f744c656e646572000000000000000000000000000000000000000000000060448201526064016107a8565b60606136aa60038054613617906140db565b80601f0160208091040260200160405190810160405280929190818152602001828054613643906140db565b80156136905780601f1061366557610100808354040283529160200191613690565b820191906000526020600020905b81548152906001019060200180831161367357829003601f168201915b5050505050604051806020016040528060008152506139a1565b806136c057506136c0600a8054613617906140db565b156136d8575060408051602081019091526000815290565b600054602254602954602a546040516355437c5b60e01b81526001600160a01b03909416936355437c5b9361371593600393600a93600401614a1d565b600060405180830381865afa158015613732573d6000803e3d6000fd5b505050506040513d6000823e601f3d908101601f1916820160405261138a9190810190614550565b3361378c7f9016d09d72d40fdae2fd8ceac6b6234c7706214fd39c1cd1e609a0528c199300546001600160a01b031690565b6001600160a01b031614611b6b5760405163118cdaa760e01b81523360048201526024016107a8565b7f9016d09d72d40fdae2fd8ceac6b6234c7706214fd39c1cd1e609a0528c19930080546001600160a01b031981166001600160a01b03848116918217845560405192169182907f8be0079c531659141344cd1fd0a4f28419497f9722a3daafe3b4186f6b6457e090600090a3505050565b6001600160a01b03811632036138395750565b6000546040516355959d5f60e11b81523260048201526001600160a01b039091169063ab2b3abe90602401602060405180830381865afa158015613881573d6000803e3d6000fd5b505050506040513d601f19601f820116820180604052508101906138a59190614351565b6129b75760405162461bcd60e51b815260206004820152600c60248201527f4e6f5065726d697373696f6e000000000000000000000000000000000000000060448201526064016107a8565b6001546001600160a01b03163214611b6b5760405162461bcd60e51b815260206004820152600b60248201527f4e6f74426f72726f77657200000000000000000000000000000000000000000060448201526064016107a8565b7ff0c57e16840df040f15088dc2f81fe391c3923bec73e23a9662efc9c229c6a005468010000000000000000900460ff16611b6b57604051631afcd79f60e31b815260040160405180910390fd5b61298461394b565b600081518351146139b457506000612b53565b825160208381018281209186019283209091145b95945050505050565b6001600160a01b03811681146129b757600080fd5b60008083601f8401126139f857600080fd5b50813567ffffffffffffffff811115613a1057600080fd5b602083019150836020828501011115613a2857600080fd5b9250929050565b600080600080600080600060c0888a031215613a4a57600080fd5b8735613a55816139d1565b96506020880135955060408801359450606088013560088110613a7757600080fd5b9350608088013567ffffffffffffffff811115613a9357600080fd5b613a9f8a828b016139e6565b989b979a5095989497959660a090950135949350505050565b60005b83811015613ad3578181015183820152602001613abb565b50506000910152565b60008151808452613af4816020860160208601613ab8565b601f01601f19169290920160200192915050565b602081526000613b1b6020830184613adc565b9392505050565b600080600080600080600080610100898b031215613b3f57600080fd5b8835613b4a816139d1565b97506020890135965060408901359550606089013594506080890135935060a0890135613b76816139d1565b979a969950949793969295929450505060c08201359160e0013590565b634e487b7160e01b600052604160045260246000fd5b604051601f8201601f1916810167ffffffffffffffff81118282101715613bd257613bd2613b93565b604052919050565b600067ffffffffffffffff821115613bf457613bf4613b93565b50601f01601f191660200190565b6000613c15613c1084613bda565b613ba9565b9050828152838383011115613c2957600080fd5b828260208301376000602084830101529392505050565b600082601f830112613c5157600080fd5b613b1b83833560208501613c02565b60008060408385031215613c7357600080fd5b823567ffffffffffffffff80821115613c8b57600080fd5b613c9786838701613c40565b93506020850135915080821115613cad57600080fd5b50613cba85828601613c40565b9150509250929050565b634e487b7160e01b600052602160045260246000fd5b600a8110613cea57613cea613cc4565b9052565b60208101612b538284613cda565b6020810160038310613d1057613d10613cc4565b91905290565b60008060008060008060008060c0898b031215613d3257600080fd5b8835613d3d816139d1565b97506020890135965060408901359550606089013567ffffffffffffffff80821115613d6857600080fd5b613d748c838d016139e6565b909750955060808b0135915080821115613d8d57600080fd5b50613d9a8b828c016139e6565b999c989b50969995989497949560a00135949350505050565b60008060408385031215613dc657600080fd5b50508035926020909101359150565b600080600080600080600060a0888a031215613df057600080fd5b873567ffffffffffffffff80821115613e0857600080fd5b613e148b838c016139e6565b909950975060208a0135915080821115613e2d57600080fd5b613e398b838c016139e6565b909750955060408a0135945060608a0135915080821115613e5957600080fd5b508801601f81018a13613e6b57600080fd5b613e7a8a823560208401613c02565b9250506080880135905092959891949750929550565b60028110613cea57613cea613cc4565b60208101612b538284613e90565b6020810160088310613d1057613d10613cc4565b600060208284031215613ed457600080fd5b813567ffffffffffffffff811115613eeb57600080fd5b613ef784828501613c40565b949350505050565b63ffffffff811681146129b757600080fd5b8035613f1c81613eff565b919050565b600060808284031215613f3357600080fd5b50919050565b60008060008060808587031215613f4f57600080fd5b843567ffffffffffffffff80821115613f6757600080fd5b613f7388838901613c40565b9550602091508187013581811115613f8a57600080fd5b8701601f81018913613f9b57600080fd5b803582811115613fad57613fad613b93565b8060051b613fbc858201613ba9565b918252828101850191858101908c841115613fd657600080fd5b86850192505b8383101561401257823586811115613ff45760008081fd5b6140028e8983890101613c40565b8352509186019190860190613fdc565b809950505050505061402660408801613f11565b9350606087013591508082111561403c57600080fd5b5061404987828801613f21565b91505092959194509250565b60006020828403121561406757600080fd5b8135612b50816139d1565b60008060006040848603121561408757600080fd5b833567ffffffffffffffff8082111561409f57600080fd5b6140ab878388016139e6565b909550935060208601359150808211156140c457600080fd5b506140d186828701613c40565b9150509250925092565b600181811c908216806140ef57607f821691505b602082108103613f3357634e487b7160e01b600052602260045260246000fd5b601f82111561415557600081815260208120601f850160051c810160208610156141365750805b601f850160051c820191505b818110156125a357828155600101614142565b505050565b67ffffffffffffffff83111561417257614172613b93565b6141868361418083546140db565b8361410f565b6000601f8411600181146141ba57600085156141a25750838201355b600019600387901b1c1916600186901b178355614214565b600083815260209020601f19861690835b828110156141eb57868501358255602094850194600190920191016141cb565b50868210156142085760001960f88860031b161c19848701351681555b505060018560011b0183555b5050505050565b60006020828403121561422d57600080fd5b5051919050565b60006020828403121561424657600080fd5b815160ff81168114612b5057600080fd5b634e487b7160e01b600052601260045260246000fd5b634e487b7160e01b600052601160045260246000fd5b60008261429257614292614257565b500490565b81810381811115612b5357612b5361426d565b8082028115828204841417612b5357612b5361426d565b6080815260006142d46080830187613adc565b82810360208401526142e68187613adc565b905082810360408401526142fa8186613adc565b9150506001600160a01b038316606083015295945050505050565b6000806040838503121561432857600080fd5b8251614333816139d1565b6020939093015192949293505050565b80151581146129b757600080fd5b60006020828403121561436357600080fd5b8151612b5081614343565b6060810161437c8286613e90565b6001600160a01b038085166020840152808416604084015250949350505050565b6000602082840312156143af57600080fd5b815160038110612b5057600080fd5b815167ffffffffffffffff8111156143d8576143d8613b93565b6143ec816143e684546140db565b8461410f565b602080601f83116001811461442157600084156144095750858301515b600019600386901b1c1916600185901b1785556125a3565b600085815260208120601f198616915b8281101561445057888601518255948401946001909101908401614431565b508582101561446e5787850151600019600388901b60f8161c191681555b5050505050600190811b01905550565b6000815461448b816140db565b8085526020600183811680156144a857600181146144c2576144f0565b60ff1985168884015283151560051b8801830195506144f0565b866000528260002060005b858110156144e85781548a82018601529083019084016144cd565b890184019650505b505050505092915050565b60408152600061450e604083018561447e565b82810360208401526139c88185613adc565b600061452e613c1084613bda565b905082815283838301111561454257600080fd5b613b1b836020830184613ab8565b60006020828403121561456257600080fd5b815167ffffffffffffffff81111561457957600080fd5b8201601f8101841361458a57600080fd5b613ef784825160208401614520565b81835281816020850137506000828201602090810191909152601f909101601f19169091010190565b602081526000613ef7602083018486614599565b6000610120825184526020830151602085015260408301516040850152606083015181606086015261460a82860182613adc565b915050608083015184820360808601526146248282613adc565b91505060a083015184820360a086015261463e8282613adc565b91505060c083015160c085015260e083015184820360e08601526146628282613adc565b610100948501519590940194909452509092915050565b602081526000613b1b60208301846145d6565b6000825161469e818460208701613ab8565b9190910192915050565b6000808335601e198436030181126146bf57600080fd5b83018035915067ffffffffffffffff8211156146da57600080fd5b6020019150600581901b3603821315613a2857600080fd5b63ffffffff8816815260006020888184015260a060408401528660a08401527f07ffffffffffffffffffffffffffffffffffffffffffffffffffffffffffffff87111561473e57600080fd5b8660051b808960c086013760608401879052830183810360c090810160808601528101859052859060009060e0015b8682101561479657823561478081614343565b151581529183019160019190910190830161476d565b9c9b505050505050505050505050565b8051613f1c81613eff565b60006101008083850312156147c557600080fd5b6040519081019067ffffffffffffffff821181831017156147e8576147e8613b93565b81604052835191506147f982613eff565b818152602084015160208201526040840151604082015261481c606085016147a6565b606082015261482d608085016147a6565b608082015261483e60a085016147a6565b60a082015260c084015160c082015261485960e085016147a6565b60e0820152949350505050565b600081518084526020808501808196508360051b8101915082860160005b858110156148ae57828403895261489c848351613adc565b98850198935090840190600101614884565b5091979650505050505050565b6080815260006148ce6080830187613adc565b82810360208401526148e08187614866565b905082810360408401526148f4818661447e565b905082810360608401526149088185613adc565b979650505050505050565b82815260408101613b1b6020830184613cda565b6001600160a01b0383168152604060208201526000613ef760408301846145d6565b60808152600061495c6080830187613adc565b828103602084015261496e8187614866565b90508281036040840152614982818661447e565b90508281036060840152614908818561447e565b80820180821115612b5357612b5361426d565b8581528460208201526080604082015260006149c9608083018587614599565b82810360608401526149db8185613adc565b98975050505050505050565b6000826149f6576149f6614257565b500690565b604081526000614a0e60408301856145d6565b90508260208301529392505050565b60a081526000614a3060a083018861447e565b8281036020840152614a42818861447e565b6040840196909652505060608101929092526080909101529291505056fea26469706673582212203b2f68fb7a0d2fa83d981dc69b8a55889fbd649fecaaa86df2bb18ce82476f0b64736f6c63430008140033",
  "linkReferences": {},
  "deployedLinkReferences": {}
}